:100000000C942A000C9447000C9447000C94470071
:100010000C9447000C9447000C9447000C94470044
:100020000C9447000C9447000C9447000C94470034
:100030000C9447000C9447000C9447000C94470024
:100040000C9447000C9447000C9447000C94470014
:100050000C94470011241FBECFE5D8E0DEBFCDBF12
:1000600010E0A0E6B0E0E2E6F5E002C005900D92F7
:10007000AC39B107D9F720E0ACE9B0E001C01D927E
:10008000A23AB207E1F70E9429020C94AF020C9445
:10009000000084B3816084BB85B38E7F85BB87E815
:1000A00093E10197F1F700C0000085B3816085BB43
:1000B000089584B38E7F84BB9899FECF989BFECF22
:1000C0009899FECF089520E030E019C0989BFECFAC
:1000D0008AE08A95F1F7989B09C08091A10090E091
:1000E000880F991F81608093A10005C08091A100B5
:1000F000880F8093A1009899FECF2F5F3F4F283043
:10010000310524F38091A1000895CF93DF9300D0AF
:1001100000D01F92CDB7DEB7FE01319685E0DF013A
:100120001D928A95E9F70E9449000E9459000E9499
:1001300063008093A0000E94630080939F000E9450
:10014000630080939E000E94630080939D000E9444
:10015000630080939C009091A00020919F0030E06C
:10016000290F311D90919E00290F311D90919D0006
:10017000290F311D90E02817390729F080E690E01B
:100180000E945C026AC086E690E00E945C02809158
:10019000A0004AE050E0BE016F5F7F4F90E00E94F8
:1001A0006F02CE0101960E945C0281E790E00E94FE
:1001B0005C0280919F004AE050E0BE016F5F7F4F7C
:1001C00090E00E946F02CE0101960E945C0283E7DC
:1001D00090E00E945C0280919E004AE050E0BE01E7
:1001E0006F5F7F4F90E00E946F0285E790E00E9472
:1001F0005C02CE0101960E945C0281E790E00E94C1
:100200005C0280919D004AE050E0BE016F5F7F4F2D
:1002100090E00E946F02CE0101960E945C0280E88D
:1002200090E00E945C0283E890E00E945C02809172
:100230009C004AE050E0BE016F5F7F4F90E00E945B
:100240006F02CE0101960E945C0288E890E00E9455
:100250005C028AE890E00E945C0283EC99E00197DE
:10026000F1F700C000000F900F900F900F900F90CB
:10027000DF91CF910895813019F130F08230E1F1B2
:10028000833009F454C0089541110CC02AB381E0B1
:1002900090E002C0880F991F6A95E2F7809582234B
:1002A0008ABB0895413009F05CC02AB381E090E038
:1002B00002C0880F991F6A95E2F7822B8ABB0895C6
:1002C00041110CC027B381E090E002C0880F991F54
:1002D0006A95E2F78095822387BB0895413009F043
:1002E00040C027B381E090E002C0880F991F6A9553
:1002F000E2F7822B87BB089541110CC024B381E043
:1003000090E002C0880F991F6A95E2F780958223DA
:1003100084BB0895413029F524B381E090E002C008
:10032000880F991F6A95E2F7822B84BB08954111CB
:100330000CC021B381E090E002C0880F991F6A953C
:10034000E2F78095822381BB0895413051F421B3B7
:1003500081E090E002C0880F991F6A95E2F7822B36
:1003600081BB0895813019F130F08230E1F18330A2
:1003700009F454C0089541110CC02BB381E090E002
:1003800002C0880F991F6A95E2F7809582238BBB84
:100390000895413009F05CC02BB381E090E002C0C9
:1003A000880F991F6A95E2F7822B8BBB0895411144
:1003B0000CC028B381E090E002C0880F991F6A95B5
:1003C000E2F78095822388BB0895413009F040C050
:1003D00028B381E090E002C0880F991F6A95E2F788
:1003E000822B88BB089541110CC025B381E090E0B9
:1003F00002C0880F991F6A95E2F78095822385BB1A
:100400000895413029F525B381E090E002C0880FBE
:10041000991F6A95E2F7822B85BB089541110CC0A4
:1004200022B381E090E002C0880F991F6A95E2F73D
:100430008095822382BB0895413051F422B381E03C
:1004400090E002C0880F991F6A95E2F7822B82BB69
:1004500008950E944E028DE890E00E945C022FEF0A
:1004600083ED90E3215080409040E1F700C0000010
:1004700041E067E082E00E943B0141E067E082E00A
:100480000E94B2010E9485002FEF87EA91E6215079
:1004900080409040E1F700C00000F4CF82E08BB9CB
:1004A00088E18AB986E880BD10BC80E189B90895E9
:1004B0005D9BFECF8CB908950F931F93CF938C0152
:1004C000C0E003C00E945802CF5FF801EC0FF11D9D
:1004D00080818111F7CFCF911F910F9108954532FF
:1004E000510520F4423010F00C947A02FB01108286
:1004F000CB010895BB274A3031F4992322F4BDE2A1
:10050000909581959F4F0C948602BB27FB01552740
:10051000AA27880F991FAA1FA41710F0A41B839560
:100520005051B9F7A05DAA3308F0A95DA1930097D7
:1005300079F7B111B1931192CB010C949F02DC01B8
:10054000FC01672F71917723E1F7329704C07C910A
:100550006D9370836291AE17BF07C8F30895F89446
:02056000FFCFCB
:100562004572726F720048756D6964697479203DD5
:10057200002E00250020202054656D70203D2000B3
:1005820043200053554D3D2020000D0A00484920CC
:0C059200484F57204152452055200000E2
:00000001FF
