S012000066696E616C5F746573742E73726563E9
S11300000C942A000C9447000C9447000C9447006D
S11300100C9447000C9447000C9447000C94470040
S11300200C9447000C9447000C9447000C94470030
S11300300C9447000C9447000C9447000C94470020
S11300400C9447000C9447000C9447000C94470010
S11300500C94470011241FBECFE5D8E0DEBFCDBF0E
S113006010E0A0E6B0E0ECEFF6E002C005900D92DF
S1130070A83AB107D9F720E0A8EAB0E001C01D9280
S1130080A23CB207E1F70E9454010C947C030C9447
S1130090000080E487B983E886B90895877097B132
S11300A0987F892B87B986B1806486B93699FECF4B
S11300B084B195B10895813019F130F08230E1F1C5
S11300C0833009F454C0089541110CC02AB381E06F
S11300D090E002C0880F991F6A95E2F78095822309
S11300E08ABB0895413009F05CC02AB381E090E0F6
S11300F002C0880F991F6A95E2F7822B8ABB089584
S113010041110CC027B381E090E002C0880F991F11
S11301106A95E2F78095822387BB0895413009F000
S113012040C027B381E090E002C0880F991F6A9510
S1130130E2F7822B87BB089541110CC024B381E000
S113014090E002C0880F991F6A95E2F78095822398
S113015084BB0895413029F524B381E090E002C0C6
S1130160880F991F6A95E2F7822B84BB0895411189
S11301700CC021B381E090E002C0880F991F6A95FA
S1130180E2F78095822381BB0895413051F421B375
S113019081E090E002C0880F991F6A95E2F7822BF4
S11301A081BB0895813079F028F08230A9F0833042
S11301B0E1F024C089B390E002C0959587956A95D3
S11301C0E2F78170089589B390E002C09595879510
S11301D06A95E2F78170089589B390E002C095951D
S11301E087956A95E2F78170089589B390E002C01B
S11301F0959587956A95E2F78170089580E0089552
S113020081E00E944E009093A9008093A800BC0155
S113021080E090E00E94410226EF38E24CE950E48D
S11302200E94CF020E940B02072E000C880B990B30
S11302300E94430220E030E040E251E40E94990130
S11302400E940B02DC01CB019093B5008093B400B3
S11302504AE050E066EB70E00E943C0380E690E0E8
S11302600E94860186EB90E00E94860186E690E07B
S11302700E9486012FEF83ED90E32150804090404F
S1130280E1F700C00000089560E081E00E94D20020
S1130290813029F48AE690E00E948601089589E875
S11302A090E00E948601089540E060E081E00E94B1
S11302B05B000E9478010E9449008AE990E00E9454
S11302C086010E9400012FEF87EA91E621508040C9
S11302D09040E1F700C000000E9444012FEF87EA3C
S11302E091E6215080409040E1F700C00000E9CF42
S11302F082E08BB988E18AB986E880BD10BC80E1D0
S113030089B908955D9BFECF8CB908950F931F930F
S1130310CF938C01C0E003C00E948201CF5FF8013B
S1130320EC0FF11D80818111F7CFCF911F910F91B7
S113033008950E94AD010C9495020E948E0258F01B
S11303400E94870240F029F45F3F29F00C947E025A
S113035051110C94C9020C9484020E94A60268F301
S11303609923B1F3552391F3951B550BBB27AA276A
S113037062177307840738F09F5F5F4F220F331FA4
S1130380441FAA1FA9F335D00E2E3AF0E0E832D06C
S113039091505040E695001CCAF72BD0FE2F29D06F
S11303A0660F771F881FBB1F261737074807AB0741
S11303B0B0E809F0BB0B802DBF01FF2793585F4FB6
S11303C03AF09E3F510578F00C947E020C94C902D9
S11303D05F3FE4F3983ED4F3869577956795B79598
S11303E0F7959F5FC9F7880F911D9695879597F9A3
S11303F00895E1E0660F771F881FBB1F621773071C
S11304008407BA0720F0621B730B840BBA0BEE1F30
S113041088F7E09508950E9412026894B1110C9433
S1130420C90208950E94AE0288F09F5798F0B92F30
S11304309927B751B0F0E1F0660F771F881F991F15
S11304401AF0BA95C9F714C0B13091F00E94C802ED
S1130450B1E008950C94C802672F782F8827B85FFD
S113046039F0B93FCCF3869577956795B395D9F76D
S11304703EF490958095709561957F4F8F4F9F4F77
S11304800895E89409C097FB3EF490958095709583
S113049061957F4F8F4F9F4F9923A9F0F92F96E9CC
S11304A0BB279395F695879577956795B795F11141
S11304B0F8CFFAF4BB0F11F460FF1BC06F5F7F4FDE
S11304C08F4F9F4F16C0882311F096E911C07723F0
S11304D021F09EE8872F762F05C0662371F096E8F9
S11304E0862F70E060E02AF09A95660F771F881FC8
S11304F0DAF7880F9695879597F9089597F99F6786
S113050080E870E060E008959FEF80EC0895002497
S11305100A941616170618060906089500240A9464
S113052012161306140605060895092E0394000CEA
S113053011F4882352F0BB0F40F4BF2B11F460FF79
S113054004C06F5F7F4F8F4F9F4F089557FD9058A2
S1130550440F551F59F05F3F71F04795880F97FB83
S1130560991F61F09F3F79F087950895121613063D
S11305701406551FF2CF4695F1DF08C0161617066C
S11305801806991FF1CF86957105610508940895A1
S1130590E894BB2766277727CB0197F908950E9433
S11305A0E2020C9495020E94870238F00E948E02A7
S11305B020F0952311F00C947E020C9484021124F3
S11305C00C94C9020E94A60270F3959FC1F3950F83
S11305D050E0551F629FF001729FBB27F00DB11DC3
S11305E0639FAA27F00DB11DAA1F649F6627B00D53
S11305F0A11D661F829F2227B00DA11D621F739F3C
S1130600B00DA11D621F839FA00D611D221F749F49
S11306103327A00D611D231F849F600D211D822F90
S1130620762F6A2F11249F5750409AF0F1F08823B7
S11306304AF0EE0FFF1FBB1F661F771F881F9150E4
S11306405040A9F79E3F510580F00C947E020C9413
S1130650C9025F3FE4F3983ED4F386957795679596
S1130660B795F795E7959F5FC1F7FE2B880F911D0E
S11306709695879597F908954532510520F44230AF
S113068010F00C944703FB011082CB010895BB27A3
S11306904A3031F4992322F4BDE2909581959F4F1D
S11306A00C945303BB27FB015527AA27880F991FD6
S11306B0AA1FA41710F0A41B83955051B9F7A05D8D
S11306C0AA3308F0A95DA193009779F7B111B1930A
S11306D01192CB010C946C03DC01FC01672F719126
S11306E07723E1F7329704C07C916D937083629114
S10F06F0AE17BF07C8F30895F894FFCFBD
S11306FC54656D703D00430D0A0074686572652085
S113070C697320736F6D656F6E65206D6F76696E9E
S113071C672061726F756E64004E6F206F6E65207A
S113072C6973206D6F76696E6700484920484F578E
S10B073C204152452055200024
S9030000FC
