S012000066696E616C5F746573742E73726563E9
S11300000C942A000C9447000C9447000C9447006D
S11300100C9447000C9447000C9447000C94470040
S11300200C9447000C9447000C9447000C94470030
S11300300C9447000C9447000C9447000C94470020
S11300400C9447000C9447000C9447000C94470010
S11300500C94470011241FBECFE5D8E0DEBFCDBF0E
S113006010E0A0E6B0E0E8E8F5E002C005900D92EB
S1130070A837B107D9F720E0A8E7B0E001C01D9286
S1130080A837B207E1F70E94AA000C94C2020C94AC
S1130090000080E487B983E886B90895877097B132
S11300A0987F892B87B986B1806486B93699FECF4B
S11300B084B195B10895CF93DF93CDB7DEB72A9776
S11300C00FB6F894DEBF0FBECDBF81E00E944E0094
S11300D0BC0180E090E00E94870126EF38E24CE901
S11300E050E40E9415020E945101072E000C880B57
S11300F0990B0E94890120E030E040E251E40E9423
S1130100DF000E945101DC01CB014AE050E0BE0156
S11301106F5F7F4F0E94820280E690E00E94CC00D5
S1130120CE0101960E94CC0086E690E00E94CC00AD
S11301302FEF83ED90E3215080409040E1F700C021
S113014000002A960FB6F894DEBF0FBECDBFDF9134
S1130150CF9108950E94BE000E9449008AE690E073
S11301600E94CC000E945B002FEF87EA91E62150A9
S113017080409040E1F700C00000F4CF82E08BB9EA
S113018088E18AB986E880BD10BC80E189B9089508
S11301905D9BFECF8CB908950F931F93CF938C0171
S11301A0C0E003C00E94C800CF5FF801EC0FF11D4E
S11301B080818111F7CFCF911F910F9108950E94F3
S11301C0F3000C94DB010E94D40158F00E94CD018D
S11301D040F029F45F3F29F00C94C40151110C94B0
S11301E00F020C94CA010E94EC0168F39923B1F345
S11301F0552391F3951B550BBB27AA276217730749
S1130200840738F09F5F5F4F220F331F441FAA1FDC
S1130210A9F335D00E2E3AF0E0E832D09150504098
S1130220E695001CCAF72BD0FE2F29D0660F771F46
S1130230881FBB1F261737074807AB07B0E809F02C
S1130240BB0B802DBF01FF2793585F4F3AF09E3FB1
S1130250510578F00C94C4010C940F025F3FE4F351
S1130260983ED4F3869577956795B795F7959F5FF4
S1130270C9F7880F911D9695879597F90895E1E040
S1130280660F771F881FBB1F621773078407BA079F
S113029020F0621B730B840BBA0BEE1F88F7E095FA
S11302A008950E9458016894B1110C940F020895A6
S11302B00E94F40188F09F5798F0B92F9927B751FD
S11302C0B0F0E1F0660F771F881F991F1AF0BA95F6
S11302D0C9F714C0B13091F00E940E02B1E0089544
S11302E00C940E02672F782F8827B85F39F0B93F36
S11302F0CCF3869577956795B395D9F73EF49095A9
S11303008095709561957F4F8F4F9F4F0895E89426
S113031009C097FB3EF490958095709561957F4F49
S11303208F4F9F4F9923A9F0F92F96E9BB279395F7
S1130330F695879577956795B795F111F8CFFAF407
S1130340BB0F11F460FF1BC06F5F7F4F8F4F9F4F38
S113035016C0882311F096E911C0772321F09EE896
S1130360872F762F05C0662371F096E8862F70E0FC
S113037060E02AF09A95660F771F881FDAF7880FD6
S11303809695879597F9089597F99F6780E870E0A7
S113039060E008959FEF80EC089500240A941616F7
S11303A0170618060906089500240A94121613065F
S11303B0140605060895092E0394000C11F48823ED
S11303C052F0BB0F40F4BF2B11F460FF04C06F5F09
S11303D07F4F8F4F9F4F089557FD9058440F551FDF
S11303E059F05F3F71F04795880F97FB991F61F0B3
S11303F09F3F79F087950895121613061406551F2A
S1130400F2CF4695F1DF08C0161617061806991F95
S1130410F1CF86957105610508940895E894BB278A
S113042066277727CB0197F908950E9428020C9438
S1130430DB010E94CD0138F00E94D40120F0952305
S113044011F00C94C4010C94CA0111240C940F02F1
S11304500E94EC0170F3959FC1F3950F50E0551F76
S1130460629FF001729FBB27F00DB11D639FAA2705
S1130470F00DB11DAA1F649F6627B00DA11D661F54
S1130480829F2227B00DA11D621F739FB00DA11D75
S1130490621F839FA00D611D221F749F3327A00D2F
S11304A0611D231F849F600D211D822F762F6A2FCB
S11304B011249F5750409AF0F1F088234AF0EE0F30
S11304C0FF1FBB1F661F771F881F91505040A9F75D
S11304D09E3F510580F00C94C4010C940F025F3FC1
S11304E0E4F3983ED4F3869577956795B795F79599
S11304F0E7959F5FC1F7FE2B880F911D9695879511
S113050097F908954532510520F4423010F00C94C7
S11305108D02FB011082CB010895BB274A3031F4D0
S1130520992322F4BDE2909581959F4F0C949902F2
S1130530BB27FB015527AA27880F991FAA1FA417B9
S113054010F0A41B83955051B9F7A05DAA3308F0AD
S1130550A95DA193009779F7B111B1931192CB01E1
S11305600C94B202DC01FC01672F71917723E1F74F
S1130570329704C07C916D9370836291AE17BF076C
S10B0580C8F30895F894FFCFBD
S113058854656D703D00430D0A00484920484F5793
S10B05982041524520552000CA
S9030000FC
