:100000000C942A000C9447000C9447000C94470071
:100010000C9447000C9447000C9447000C94470044
:100020000C9447000C9447000C9447000C94470034
:100030000C9447000C9447000C9447000C94470024
:100040000C9447000C9447000C9447000C94470014
:100050000C94470011241FBECFE5D8E0DEBFCDBF12
:1000600010E0A0E6B0E0EAE0FAE002C005900D92F0
:10007000A83CB107D9F720E0A8ECB0E001C01D9280
:10008000AA3EB207E1F70E94C5020C9403050C9446
:10009000000080E487B983E886B90895877097B136
:1000A000987F892B87B986B1806486B93699FECF4F
:1000B00084B195B1089581B3806181BB82B38F7E95
:1000C00082BB87E893E10197F1F700C0000082B39B
:1000D000806182BB089581B38F7E81BB8499FECFFE
:1000E000849BFECF8499FECF089520E030E019C0B4
:1000F000849BFECF8AE08A95F1F7849B09C08091AA
:10010000C80090E0880F991F81608093C80005C0E7
:100110008091C800880F8093C8008499FECF2F5F1C
:100120003F4F2830310524F38091C8000895CF93C4
:10013000DF9300D000D01F92CDB7DEB780E690E00D
:100140000E940D038BE690E00E940D030E945B006D
:100150000E946B0040E067E082E00E94BA010E94CA
:1001600075008093CE000E9475008093CB000E94A2
:1001700075008093CD000E9475008093CF000E948F
:1001800075008093CC00E091CE00F0E09091CB0020
:100190009F01290F311D9091CD00290F311D9091A4
:1001A000CF00290F311D482F50E02417350729F0C3
:1001B00083E790E00E940D0358C04AE050E0BE0182
:1001C0006F5F7F4FCF010E94C304CE0101960E9452
:1001D0000D0389E790E00E940D038091CB004AE077
:1001E00050E0BE016F5F7F4F90E00E94C304CE01DC
:1001F00001960E940D038BE790E00E940D03809111
:10020000CD004AE050E0BE016F5F7F4F90E00E945A
:10021000C304CE0101960E940D0389E790E00E947D
:100220000D038091CF004AE050E0BE016F5F7F4F29
:1002300090E00E94C304CE0101960E940D038DE759
:1002400090E00E940D038091CC004AE050E0BE0196
:100250006F5F7F4F90E00E94C304CE0101960E9421
:100260000D0381E790E00E940D0383EC99E0019774
:10027000F1F700C000000F900F900F900F900F90BB
:10028000DF91CF910895813019F130F08230E1F1A2
:10029000833009F454C0089541110CC02AB381E0A1
:1002A00090E002C0880F991F6A95E2F7809582233B
:1002B0008ABB0895413009F05CC02AB381E090E028
:1002C00002C0880F991F6A95E2F7822B8ABB0895B6
:1002D00041110CC027B381E090E002C0880F991F44
:1002E0006A95E2F78095822387BB0895413009F033
:1002F00040C027B381E090E002C0880F991F6A9543
:10030000E2F7822B87BB089541110CC024B381E032
:1003100090E002C0880F991F6A95E2F780958223CA
:1003200084BB0895413029F524B381E090E002C0F8
:10033000880F991F6A95E2F7822B84BB08954111BB
:100340000CC021B381E090E002C0880F991F6A952C
:10035000E2F78095822381BB0895413051F421B3A7
:1003600081E090E002C0880F991F6A95E2F7822B26
:1003700081BB0895813019F130F08230E1F1833092
:1003800009F454C0089541110CC02BB381E090E0F2
:1003900002C0880F991F6A95E2F7809582238BBB74
:1003A0000895413009F05CC02BB381E090E002C0B9
:1003B000880F991F6A95E2F7822B8BBB0895411134
:1003C0000CC028B381E090E002C0880F991F6A95A5
:1003D000E2F78095822388BB0895413009F040C040
:1003E00028B381E090E002C0880F991F6A95E2F778
:1003F000822B88BB089541110CC025B381E090E0A9
:1004000002C0880F991F6A95E2F78095822385BB09
:100410000895413029F525B381E090E002C0880FAE
:10042000991F6A95E2F7822B85BB089541110CC094
:1004300022B381E090E002C0880F991F6A95E2F72D
:100440008095822382BB0895413051F422B381E02C
:1004500090E002C0880F991F6A95E2F7822B82BB59
:100460000895813079F028F08230A9F08330E1F0EE
:1004700024C089B390E002C0959587956A95E2F70C
:100480008170089589B390E002C0959587956A952B
:10049000E2F78170089589B390E002C09595879541
:1004A0006A95E2F78170089589B390E002C095954E
:1004B00087956A95E2F78170089580E0089581E05C
:1004C0000E944E009093D1008093D000BC0180E048
:1004D00090E00E94C80326EF38E24CE950E40E9405
:1004E00056040E949203072E000C880B990B0E9461
:1004F000CA0320E030E040E251E40E9420030E9461
:100500009203DC01CB019093DD008093DC004AE094
:1005100050E06EED70E00E94C30480E890E00E941D
:100520000D038EED90E00E940D0386E890E00E949E
:100530000D032FEF83ED90E3215080409040E1F7D1
:1005400000C00000089582E00E944E009093CA000F
:100550008093C9004AE050E062ED70E00E94C3045D
:1005600082ED90E00E940D03089560E081E00E941A
:100570003102813029F48AE890E00E940D03089549
:1005800089EA90E00E940D03089540E060E081E078
:100590000E9443010E94FF020E9449008AEB90E002
:1005A0000E940D030E9497002FEF87EA91E62150E9
:1005B00080409040E1F700C000000E94A3022FEFAE
:1005C00087EA91E6215080409040E1F700C00000AA
:1005D0000E945F022FEF87EA91E621508040904011
:1005E000E1F700C000000E94B5022FEF87EA91E614
:1005F000215080409040E1F700C00000D3CF82E05E
:100600008BB988E18AB986E880BD10BC80E189B9E0
:1006100008955D9BFECF8CB908950F931F93CF93E0
:100620008C01C0E003C00E940903CF5FF801EC0F0A
:10063000F11D80818111F7CFCF911F910F91089506
:100640000E9434030C941C040E94150458F00E946C
:100650000E0440F029F45F3F29F00C940504511179
:100660000C9450040C940B040E942D0468F39923FD
:10067000B1F3552391F3951B550BBB27AA2762179E
:100680007307840738F09F5F5F4F220F331F441FAB
:10069000AA1FA9F335D00E2E3AF0E0E832D09150DF
:1006A0005040E695001CCAF72BD0FE2F29D0660FCC
:1006B000771F881FBB1F261737074807AB07B0E80F
:1006C00009F0BB0B802DBF01FF2793585F4F3AF015
:1006D0009E3F510578F00C9405040C9450045F3F44
:1006E000E4F3983ED4F3869577956795B795F7959B
:1006F0009F5FC9F7880F911D9695879597F9089583
:10070000E1E0660F771F881FBB1F6217730784071E
:10071000BA0720F0621B730B840BBA0BEE1F88F72D
:10072000E09508950E9499036894B1110C945004C7
:1007300008950E94350488F09F5798F0B92F9927A3
:10074000B751B0F0E1F0660F771F881F991F1AF0BC
:10075000BA95C9F714C0B13091F00E944F04B1E0CE
:1007600008950C944F04672F782F8827B85F39F0CD
:10077000B93FCCF3869577956795B395D9F73EF455
:1007800090958095709561957F4F8F4F9F4F0895FD
:10079000E89409C097FB3EF490958095709561951B
:1007A0007F4F8F4F9F4F9923A9F0F92F96E9BB27D1
:1007B0009395F695879577956795B795F111F8CF4D
:1007C000FAF4BB0F11F460FF1BC06F5F7F4F8F4FB8
:1007D0009F4F16C0882311F096E911C0772321F0AE
:1007E0009EE8872F762F05C0662371F096E8862F46
:1007F00070E060E02AF09A95660F771F881FDAF79D
:10080000880F9695879597F9089597F99F6780E8DF
:1008100070E060E008959FEF80EC089500240A9452
:100820001616170618060906089500240A941216CB
:100830001306140605060895092E0394000C11F4FE
:10084000882352F0BB0F40F4BF2B11F460FF04C0AB
:100850006F5F7F4F8F4F9F4F089557FD9058440F04
:10086000551F59F05F3F71F04795880F97FB991F0F
:1008700061F09F3F79F087950895121613061406CC
:10088000551FF2CF4695F1DF08C016161706180659
:10089000991FF1CF86957105610508940895E89434
:1008A000BB2766277727CB0197F908950E94690433
:1008B0000C941C040E940E0438F00E94150420F0D1
:1008C000952311F00C9405040C940B0411240C9442
:1008D00050040E942D0470F3959FC1F3950F50E0D2
:1008E000551F629FF001729FBB27F00DB11D639FE2
:1008F000AA27F00DB11DAA1F649F6627B00DA11D88
:10090000661F829F2227B00DA11D621F739FB00D2D
:10091000A11D621F839FA00D611D221F749F33279D
:10092000A00D611D231F849F600D211D822F762F36
:100930006A2F11249F5750409AF0F1F088234AF013
:10094000EE0FFF1FBB1F661F771F881F915050407F
:10095000A9F79E3F510580F00C9405040C945004B7
:100960005F3FE4F3983ED4F3869577956795B79506
:10097000F795E7959F5FC1F7FE2B880F911D969520
:10098000879597F908954532510520F4423010F0CB
:100990000C94CE04FB011082CB010895BB274A3092
:1009A00031F4992322F4BDE2909581959F4F0C94E8
:1009B000DA04BB27FB015527AA27880F991FAA1F16
:1009C000A41710F0A41B83955051B9F7A05DAA336A
:1009D00008F0A95DA193009779F7B111B193119235
:1009E000CB010C94F304DC01FC01672F7191772398
:1009F000E1F7329704C07C916D9370836291AE17DA
:0A0A0000BF07C8F30895F894FFCF74
:100A0A0048756D6964697479203D0054656D70207C
:100A1A003D20004572726F72002E002500432000AF
:100A2A0054656D703D00430D0A0074686572652057
:100A3A00697320736F6D656F6E65206D6F76696E71
:100A4A00672061726F756E64004E6F206F6E65204D
:100A5A006973206D6F76696E6700484920484F5761
:080A6A002041524520552000F7
:00000001FF
