:100000000C942A000C9447000C9447000C94470071
:100010000C9447000C9447000C9447000C94470044
:100020000C9447000C9447000C9447000C94470034
:100030000C9447000C9447000C9447000C94470024
:100040000C9447000C9447000C9447000C94470014
:100050000C94470011241FBECFE5D8E0DEBFCDBF12
:1000600011E0A0E6B0E0EAE5FBE002C005900D92E9
:10007000A436B107D9F721E0A4E6B1E001C01D9292
:10008000A638B207E1F70E9454030C94AB050C9418
:10009000000080E487B983E886B90895877097B136
:1000A000987F892B87B986B1806486B93699FECF4F
:1000B00084B195B1089581B3806181BB82B38F7E95
:1000C00082BB83E991E10197F1F700C0000082B3A0
:1000D000806182BB08950E94B70381B38F7E81BB8C
:1000E0008499FECF849BFECF8499FECF0E94C403E7
:1000F000089520E030E019C0849BFECF8AE08A9505
:10010000F1F7849B09C08091640190E0880F991FEA
:1001100081608093640105C080916401880F8093A1
:1001200064018499FECF2F5F3F4F2830310524F3BF
:10013000809164010895CF93DF9300D000D01F9287
:10014000CDB7DEB780E690E00E94A4038BE690E096
:100150000E94A4030E945B000E946B0040E067E0E5
:1001600082E00E9449020E94790080936A010E9405
:100170007900809367010E947900809369010E9451
:10018000790080936B010E94790080936801E0916F
:100190006A01F0E0909167019F01290F311D909154
:1001A0006901290F311D90916B01290F311D482FD5
:1001B00050E02417350729F083E790E00E94A4035C
:1001C00058C04AE050E0BE016F5F7F4FCF010E94F0
:1001D0006B05CE0101960E94A40389E790E00E947E
:1001E000A403809167014AE050E0BE016F5F7F4F3A
:1001F00090E00E946B05CE0101960E94A4038BE75C
:1002000090E00E94A403809169014AE050E0BE01A1
:100210006F5F7F4F90E00E946B05CE0101960E94B8
:10022000A40389E790E00E94A40380916B014AE057
:1002300050E0BE016F5F7F4F90E00E946B05CE01E2
:1002400001960E94A4038DE790E00E94A403809190
:1002500068014AE050E0BE016F5F7F4F90E00E946E
:100260006B05CE0101960E94A40381E790E00E94F5
:10027000A40383EC99E00197F1F700C000000F9010
:100280000F900F900F900F90DF91CF910895FF92F4
:100290000F931F93CF93DF93CDB7DEB7C456D10929
:1002A0000FB6F894DEBF0FBECDBFFE01319684E6D7
:1002B000DF011D928A95E9F7F12C0AC00E94A00384
:1002C000E1E0F0E0EC0FFD1FE00FF11F8083F394FD
:1002D0000F2D10E0F801319781E090E08C0F9D1F09
:1002E000E80FF91F80818A3049F789818F3429F41A
:1002F0008A818B3421F080E003C080E001C081E07E
:10030000CC59DF4F0FB6F894DEBF0FBECDBFDF91E3
:10031000CF911F910F91FF90089580E006C080E873
:1003200090E00E94A4030E9447018823C1F380E06B
:1003300006C087E890E00E94A4030E94470188233A
:10034000C1F380E006C085E990E00E94A4030E940A
:1003500047018823C1F308950F931F93CF93DF9331
:100360008C01EB0184EA90E00E94A403C8010E9482
:10037000A40383EC90E00E94A403CE010E94A40396
:100380008FEA90E00E94A4032FEF89E698E12150C4
:1003900080409040E1F700C00000DF91CF911F91B5
:1003A0000F910895813019F130F08230E1F18330FE
:1003B00009F454C0089541110CC02AB381E090E0C3
:1003C00002C0880F991F6A95E2F7809582238ABB45
:1003D0000895413009F05CC02AB381E090E002C08A
:1003E000880F991F6A95E2F7822B8ABB0895411105
:1003F0000CC027B381E090E002C0880F991F6A9576
:10040000E2F78095822387BB0895413009F040C010
:1004100027B381E090E002C0880F991F6A95E2F748
:10042000822B87BB089541110CC024B381E090E07A
:1004300002C0880F991F6A95E2F78095822384BBDA
:100440000895413029F524B381E090E002C0880F7F
:10045000991F6A95E2F7822B84BB089541110CC065
:1004600021B381E090E002C0880F991F6A95E2F7FE
:100470008095822381BB0895413051F421B381E0FE
:1004800090E002C0880F991F6A95E2F7822B81BB2A
:100490000895813019F130F08230E1F1833009F4B0
:1004A00054C0089541110CC02BB381E090E002C00C
:1004B000880F991F6A95E2F7809582238BBB089578
:1004C000413009F05CC02BB381E090E002C0880F9E
:1004D000991F6A95E2F7822B8BBB089541110CC0DE
:1004E00028B381E090E002C0880F991F6A95E2F777
:1004F0008095822388BB0895413009F040C028B31D
:1005000081E090E002C0880F991F6A95E2F7822B84
:1005100088BB089541110CC025B381E090E002C072
:10052000880F991F6A95E2F78095822385BB08950D
:10053000413029F525B381E090E002C0880F991F72
:100540006A95E2F7822B85BB089541110CC022B356
:1005500081E090E002C0880F991F6A95E2F78095CC
:10056000822382BB0895413051F422B381E090E0B0
:1005700002C0880F991F6A95E2F7822B82BB08950B
:10058000813079F028F08230A9F08330E1F024C086
:1005900089B390E002C0959587956A95E2F78170DE
:1005A000089589B390E002C0959587956A95E2F722
:1005B0008170089589B390E002C0959587956A95FA
:1005C000E2F78170089589B390E002C09595879510
:1005D0006A95E2F78170089580E0089581E00E94B5
:1005E0004E0090936D0180936C01BC0180E090E01F
:1005F0000E94700426EF38E24CE950E40E94FE04A9
:100600000E943A04072E000C880B990B0E9472047A
:1006100020E030E040E251E40E94C8030E943A0426
:10062000DC01CB0190937901809378014AE050E09E
:100630006AE771E00E946B0580E291E00E94A403EA
:100640008AE791E00E94A40386E291E00E94A4035D
:100650002FEF83ED90E3215080409040E1F700C000
:100660000000089582E00E944E00909366018093FE
:1006700065014AE050E06EE671E00E946B058EE68F
:1006800091E00E94A403089560E081E00E94C0020E
:10069000813029F48AE291E00E94A403089589E45C
:1006A00091E00E94A403089540E060E081E00E9490
:1006B000D2010E9492030E9449000E948D016AE5C6
:1006C00071E08FE591E00E94AC010E949B002FEF4A
:1006D00087EA91E6215080409040E1F700C0000099
:1006E0000E9432032FEF87EA91E62150804090402C
:1006F000E1F700C000000E94EE022FEF87EA91E6CA
:10070000215080409040E1F700C000000E94440367
:100710002FEF87EA91E6215080409040E1F700C03A
:100720000000D3CF82E08BB988E18AB986E880BD2A
:1007300010BC80E189B908955D9BFECF8CB9089506
:100740005F9BFECF8CB108950F931F93CF938C01C5
:10075000C0E003C00E949C03CF5FF801EC0FF11DC5
:1007600080818111F7CFCF911F910F91089581B5AD
:10077000886081BD81B5846081BD81B5826081BDA5
:1007800081B58E7F81BD089588E181BD11BC08953A
:100790000E94DC030C94C4040E94BD0458F00E9423
:1007A000B60440F029F45F3F29F00C94AD045111D8
:1007B0000C94F8040C94B3040E94D50468F39923B4
:1007C000B1F3552391F3951B550BBB27AA2762174D
:1007D0007307840738F09F5F5F4F220F331F441F5A
:1007E000AA1FA9F335D00E2E3AF0E0E832D091508E
:1007F0005040E695001CCAF72BD0FE2F29D0660F7B
:10080000771F881FBB1F261737074807AB07B0E8BD
:1008100009F0BB0B802DBF01FF2793585F4F3AF0C3
:100820009E3F510578F00C94AD040C94F8045F3FA2
:10083000E4F3983ED4F3869577956795B795F79549
:100840009F5FC9F7880F911D9695879597F9089531
:10085000E1E0660F771F881FBB1F621773078407CD
:10086000BA0720F0621B730B840BBA0BEE1F88F7DC
:10087000E09508950E9441046894B1110C94F80425
:1008800008950E94DD0488F09F5798F0B92F9927AA
:10089000B751B0F0E1F0660F771F881F991F1AF06B
:1008A000BA95C9F714C0B13091F00E94F704B1E0D5
:1008B00008950C94F704672F782F8827B85F39F0D4
:1008C000B93FCCF3869577956795B395D9F73EF404
:1008D00090958095709561957F4F8F4F9F4F0895AC
:1008E000E89409C097FB3EF49095809570956195CA
:1008F0007F4F8F4F9F4F9923A9F0F92F96E9BB2780
:100900009395F695879577956795B795F111F8CFFB
:10091000FAF4BB0F11F460FF1BC06F5F7F4F8F4F66
:100920009F4F16C0882311F096E911C0772321F05C
:100930009EE8872F762F05C0662371F096E8862FF4
:1009400070E060E02AF09A95660F771F881FDAF74B
:10095000880F9695879597F9089597F99F6780E88E
:1009600070E060E008959FEF80EC089500240A9401
:100970001616170618060906089500240A9412167A
:100980001306140605060895092E0394000C11F4AD
:10099000882352F0BB0F40F4BF2B11F460FF04C05A
:1009A0006F5F7F4F8F4F9F4F089557FD9058440FB3
:1009B000551F59F05F3F71F04795880F97FB991FBE
:1009C00061F09F3F79F0879508951216130614067B
:1009D000551FF2CF4695F1DF08C016161706180608
:1009E000991FF1CF86957105610508940895E894E3
:1009F000BB2766277727CB0197F908950E94110539
:100A00000C94C4040E94B60438F00E94BD0420F087
:100A1000952311F00C94AD040C94B30411240C94A0
:100A2000F8040E94D50470F3959FC1F3950F50E030
:100A3000551F629FF001729FBB27F00DB11D639F90
:100A4000AA27F00DB11DAA1F649F6627B00DA11D36
:100A5000661F829F2227B00DA11D621F739FB00DDC
:100A6000A11D621F839FA00D611D221F749F33274C
:100A7000A00D611D231F849F600D211D822F762FE5
:100A80006A2F11249F5750409AF0F1F088234AF0C2
:100A9000EE0FFF1FBB1F661F771F881F915050402E
:100AA000A9F79E3F510580F00C94AD040C94F80416
:100AB0005F3FE4F3983ED4F3869577956795B795B5
:100AC000F795E7959F5FC1F7FE2B880F911D9695CF
:100AD000879597F908954532510520F4423010F07A
:100AE0000C947605FB011082CB010895BB274A3098
:100AF00031F4992322F4BDE2909581959F4F0C9497
:100B00008205BB27FB015527AA27880F991FAA1F1B
:100B1000A41710F0A41B83955051B9F7A05DAA3318
:100B200008F0A95DA193009779F7B111B1931192E3
:100B3000CB010C949B05DC01FC01672F719177239D
:100B4000E1F7329704C07C916D9370836291AE1788
:0A0B5000BF07C8F30895F894FFCF23
:100B5A0048756D6964697479203D0054656D70202B
:100B6A003D20004572726F72002E0025004320005E
:100B7A00415445300D0A0041542B43574D4F4445CB
:100B8A003D330D0A0041542B4349504D4F44453DD6
:100B9A00300D0A0041542B43574A41503D2200224E
:100BAA000D0A0041542B43495053544152543D229B
:100BBA00544350222C2200222C0041542B434950EA
:100BCA0053454E443D00474554202F757064617467
:100BDA00653F6170695F6B65793D00266669656C82
:100BEA0064313D0047455420687474703A2F2F00D1
:100BFA002F76616C75652E7478740D0A0038300092
:100C0A003136322E3235332E3135352E32323600E8
:100C1A0054656D703D00430D0A0074686572652065
:100C2A00697320736F6D656F6E65206D6F76696E7F
:100C3A00672061726F756E64004E6F206F6E65205B
:100C4A006973206D6F76696E6700706173730073E4
:040C5A007369640056
:00000001FF
