:100000000C942A000C9447000C9447000C94470071
:100010000C9447000C9447000C9447000C94470044
:100020000C9447000C9447000C9447000C94470034
:100030000C9447000C9447000C9447000C94470024
:100040000C9447000C9447000C9447000C94470014
:100050000C94470011241FBECFE5D8E0DEBFCDBF12
:1000600010E0A0E6B0E0EAEDF1E002C005900D92EC
:10007000AE36B107D9F720E0AEE6B0E001C01D9280
:10008000AE36B207E1F70E9478000C94EB000C94B6
:100090000000877097B1987F892B87B986B18064FB
:1000A00086B93699FECF84B195B10895CF93DF9389
:1000B000CDB7DEB72A970FB6F894DEBF0FBECDBF1F
:1000C00080E090E00E9449004AE050E0BE016F5F8E
:1000D0007F4F0E94AB00CE0101960E9498002A96A5
:1000E0000FB6F894DEBF0FBECDBFDF91CF9108955C
:1000F0000E948A0080E690E00E9498000E945600CC
:100100002FEF87EA91E6215080409040E1F700C050
:100110000000F4CF82E08BB988E18AB986E880BD1F
:1001200010BC80E189B908955D9BFECF8CB908951C
:100130000F931F93CF938C01C0E003C00E949400E3
:10014000CF5FF801EC0FF11D80818111F7CFCF91C6
:100150001F910F9108954532510520F4423010F05F
:100160000C94B600FB011082CB010895BB274A30E6
:1001700031F4992322F4BDE2909581959F4F0C9420
:10018000C200BB27FB015527AA27880F991FAA1F6A
:10019000A41710F0A41B83955051B9F7A05DAA33A2
:1001A00008F0A95DA193009779F7B111B19311926D
:1001B000CB010C94DB00DC01FC01672F71917723EC
:1001C000E1F7329704C07C916D9370836291AE1712
:0A01D000BF07C8F30895F894FFCFAD
:0E01DA00484920484F572041524520552000EB
:00000001FF
