:100000000C942A000C9447000C9447000C94470071
:100010000C9447000C9447000C9447000C94470044
:100020000C9447000C9447000C9447000C94470034
:100030000C9447000C9447000C9447000C94470024
:100040000C9447000C9447000C9447000C94470014
:100050000C94470011241FBECFE5D8E0DEBFCDBF12
:1000600010E0A0E6B0E0EEE4F5E002C005900D92ED
:10007000AE38B107D9F720E0AEE8B0E001C01D927C
:10008000A439B207E1F70E941F020C94A5020C9458
:10009000000081B3806181BB82B38F7E82BB87E821
:1000A00093E10197F1F700C0000082B3806182BB49
:1000B000089581B38F7E81BB8499FECF849BFECF50
:1000C0008499FECF089520E030E019C0849BFECFD4
:1000D0008AE08A95F1F7849B09C080918E0090E0B8
:1000E000880F991F816080938E0005C080918E00DB
:1000F000880F80938E008499FECF2F5F3F4F28306A
:10010000310524F380918E000895CF93DF9300D0C2
:1001100000D01F92CDB7DEB780E690E00E94520279
:100120008BE690E00E9452020E9449000E94590012
:1001300040E067E082E00E94A8010E946300809393
:1001400092000E94630080938F000E94630080935E
:1001500091000E946300809393000E94630080934B
:100160009000E0919200F0E090918F009F01290FA4
:10017000311D90919100290F311D90919300290F0D
:10018000311D482F50E02417350729F083E790E010
:100190000E94520258C04AE050E0BE016F5F7F4F9C
:1001A000CF010E946502CE0101960E94520289E7AA
:1001B00090E00E94520280918F004AE050E0BE0120
:1001C0006F5F7F4F90E00E946502CE0101960E9412
:1001D00052028BE790E00E945202809191004AE027
:1001E00050E0BE016F5F7F4F90E00E946502CE013C
:1001F00001960E94520289E790E00E94520280918B
:1002000093004AE050E0BE016F5F7F4F90E00E9494
:100210006502CE0101960E9452028DE790E00E9495
:100220005202809190004AE050E0BE016F5F7F4F24
:1002300090E00E946502CE0101960E94520281E781
:1002400090E00E94520283EC99E00197F1F700C020
:1002500000000F900F900F900F900F90DF91CF91B3
:100260000895813019F130F08230E1F1833009F4E2
:1002700054C0089541110CC02AB381E090E002C03F
:10028000880F991F6A95E2F7809582238ABB0895AB
:10029000413009F05CC02AB381E090E002C0880FD1
:1002A000991F6A95E2F7822B8ABB089541110CC011
:1002B00027B381E090E002C0880F991F6A95E2F7AA
:1002C0008095822387BB0895413009F040C027B351
:1002D00081E090E002C0880F991F6A95E2F7822BB7
:1002E00087BB089541110CC024B381E090E002C0A7
:1002F000880F991F6A95E2F78095822384BB089541
:10030000413029F524B381E090E002C0880F991FA5
:100310006A95E2F7822B84BB089541110CC021B38A
:1003200081E090E002C0880F991F6A95E2F78095FE
:10033000822381BB0895413051F421B381E090E0E4
:1003400002C0880F991F6A95E2F7822B81BB08953E
:10035000813019F130F08230E1F1833009F454C07A
:10036000089541110CC02BB381E090E002C0880FCA
:10037000991F6A95E2F7809582238BBB08954130DF
:1003800009F05CC02BB381E090E002C0880F991F98
:100390006A95E2F7822B8BBB089541110CC028B3FC
:1003A00081E090E002C0880F991F6A95E2F780957E
:1003B000822388BB0895413009F040C028B381E012
:1003C00090E002C0880F991F6A95E2F7822B88BBE4
:1003D000089541110CC025B381E090E002C0880F60
:1003E000991F6A95E2F78095822385BB0895413075
:1003F00029F525B381E090E002C0880F991F6A9526
:10040000E2F7822B85BB089541110CC022B381E035
:1004100090E002C0880F991F6A95E2F780958223C9
:1004200082BB0895413051F422B381E090E002C0D4
:10043000880F991F6A95E2F7822B82BB08950E946C
:10044000440280E890E00E9452022FEF8FE493EC88
:10045000215080409040E1F700C0000041E067E09B
:1004600082E00E94310141E067E082E00E94A80141
:100470000E9485002FEF87EA91E62150804090404E
:10048000E1F700C00000F4CF82E08BB988E18AB9BF
:1004900086E880BD10BC80E189B908955D9BFECFE0
:1004A0008CB908950F931F93CF938C01C0E003C0C4
:1004B0000E944E02CF5FF801EC0FF11D8081811187
:1004C000F7CFCF911F910F9108954532510520F438
:1004D000423010F00C947002FB011082CB010895A1
:1004E000BB274A3031F4992322F4BDE290958195DF
:1004F0009F4F0C947C02BB27FB015527AA27880F2E
:10050000991FAA1FA41710F0A41B83955051B9F787
:10051000A05DAA3308F0A95DA193009779F7B11106
:10052000B1931192CB010C949502DC01FC01672F71
:1005300071917723E1F7329704C07C916D937083BA
:0E0540006291AE17BF07C8F30895F894FFCF7D
:10054E0048756D6964697479203D0054656D70203D
:10055E003D20004572726F72002E00250043200070
:0E056E00484920484F57204152452055200053
:00000001FF
